:020000040800F2
:10000000E008002089010008C9260008F51E000844
:1000100075260008A1030008CD2E0008000000008E
:10002000000000000000000000000000D9280008C7
:10003000A303000800000000D52700088529000858
:10004000A3010008A3010008A3010008A301000800
:10005000A3010008A3010008A3010008A3010008F0
:10006000A3010008A3010008A3010008A3010008E0
:10007000A3010008A3010008A3010008A3010008D0
:10008000A3010008A3010008A3010008A3010008C0
:10009000A3010008A3010008A3010008A3010008B0
:1000A000A3010008E9290008A3010008A301000832
:1000B000A3010008A3010008F5290008A301000816
:1000C000A3010008A3010008A3010008A301000880
:1000D000A3010008A3010008C12E0008A301000825
:1000E000A3010008A3010008A301000800F002F822
:1000F00000F03AF80AA090E8000C82448344AAF188
:100100000107DA4501D100F02FF8AFF2090EBAE885
:100110000F0013F0010F18BFFB1A43F0010318473B
:100120006042000080420000103A24BF78C878C1C5
:10013000FAD8520724BF30C830C144BF04680C60ED
:10014000704700000023002400250026103A28BF35
:1001500078C1FBD8520728BF30C148BF0B60704739
:100160001FB51FBD10B510BD00F05CF81146FFF7BC
:10017000F7FF03F003F900F07AF803B4FFF7F2FF9A
:1001800003BC00F07DF8000009488047094800479B
:10019000FEE7FEE7FEE7FEE7FEE7FEE7FEE7FEE737
:1001A000FEE7FEE704480549054A064B7047000094
:1001B000E7290008ED000008E0020020E008002028
:1001C000E0040020E00400204FF0000200B51346D8
:1001D00094469646203922BFA0E80C50A0E80C5067
:1001E000B1F12001BFF4F7AF090728BFA0E80C5018
:1001F00048BF0CC05DF804EB890028BF40F8042B11
:1002000008BF704748BF20F8022B11F0804F18BF7D
:1002100000F8012B704770477047704700487047DF
:10022000800200207546FFF7F9FFAE4605006946DB
:10023000534620F00700854618B020B5FFF7B2FFFF
:10024000BDE820404FF000064FF000074FF00008D7
:100250004FF0000B21F00701AC46ACE8C009ACE858
:10026000C009ACE8C009ACE8C0098D46704710B5BC
:100270000446AFF300802046BDE81040FFF77DBF85
:1002800001491820ABBEFEE72600020070470000BF
:100290002DE9F04702F0B8FA02F0DCFA3C4CB4F970
:1002A000040003F0E1FA06460D46B4F9000003F03D
:1002B000DBFA32462B4602F0A1FF03F09BF8354EE5
:1002C000314603F035FE344903F03CFD2062B4F9B9
:1002D000040003F0C9FA05460F46B4F9020003F022
:1002E000C3FA2A463B4602F089FF03F083F8314601
:1002F00003F01EFE294903F025FD80466062B4F933
:10030000060003F0FDFDE1680E4603F011FE616991
:1003100003F0B6FC0546A062B4F9080003F0F0FD56
:10032000314603F005FEA16903F0AAFC0746E0622E
:10033000B4F90A0003F0E4FD314603F0F9FDE16988
:1003400003F09EFC2063216906468A464FF07E50EA
:1003500003F0C4FE8146294603F0EAFD05465046F7
:10036000216A03F0E5FD294603F08AFC60614846F6
:10037000394603F0DDFD05464146504603F0D8FD01
:10038000294603F07DFCC4E90606BDE8F0870000BD
:100390000000002000003443D00F4940D00F49C076
:1003A000FEE7704772B6FEE710B5FFF771FF06482B
:1003B0004169416381698163C269C263826AC0E93C
:1003C0001021016B816410BD0000002010B590F871
:1003D00021100022022905D00421816380F8202009
:1003E000012010BD01680B6823F00E030B6001684B
:1003F0000B6823F001030B6090F84030C46B0121BF
:1004000001FA03F3636080F8211080F82020104681
:1004100010BD000010B590F821100024022903D06F
:100420000421816301243DE001680A6822F00E0284
:100430000A6001680A6822F001020A601A4A01682B
:10044000914201D1012121E0174A1432914201D198
:1004500010211BE0144A2832914201D1891515E080
:10046000114A3C32914201D189140FE00E4A5032B8
:10047000914202D14FF4803108E00B4A643291423C
:1004800002D14FF4801101E04FF08071064A083A22
:100490005160012180F82110002180F82010416B6B
:1004A00001B18847204610BD080002402DE9F84FF1
:1004B000DFF8B8910024A9F1040B23460F2709F1B6
:1004C000040AABF1040EC9E00125A5402A40AA4266
:1004D0007DD1674ED1F804C0ACEB0608B44532D0EC
:1004E00014DCBCF1030F3AD009DCBCF1000F2AD0B8
:1004F000BCF1010F1CD0BCF1020F31D11DE0BCF1E9
:10050000110F17D0BCF1120F2AD119E0B8F5881FCE
:1005100019D006DCB8F5803F15D0B8F5801F1FD183
:1005200011E0B8F5001F0ED0B8F5041F18D10AE08D
:10053000CB6815E0CB681B1D12E0CB6808330FE0D9
:10054000CB680C330CE08B682BB1012B4FF0080308
:1005500003D0456104E0042302E0056100E00023CC
:10056000FF2A01D8064601E000F104064FEA84059F
:1005700001D9A5F12005D6F8008007FA05FC28EA84
:100580000C0803FA05F548EA0508C6F800804D682E
:10059000ED0062D5374DAE6946F00106AE61AD693A
:1005A00024F0030605F001050095334D06EB050C1C
:1005B000DCF80850A607360F07FA06F825EA080502
:1005C000DFF8B880404503D14FF0000817E044E061
:1005D000DFF8AC80404502D14FF001080FE0DFF8B2
:1005E000A480404502D14FF0020808E0DFF898806F
:1005F000404502D14FF0030801E04FF0040808FA2B
:1006000006F848EA0508CCF808804D68D9F800607B
:10061000ED024D4601D5164300E096432E604D682D
:10062000DAF80060AD02554601D5164300E0964366
:100630002E604D68DBF80060AD035D4601D51643C2
:1006400000E096432E604D68DEF80060ED037546CD
:1006500001D5164300E096432E60641C0D682A46BF
:10066000E5407FF431AFBDE8F88F00000804014099
:10067000000011100010024000000140000801407D
:10068000000C014000100140001401400148806846
:10069000704700009400002070B5040025D094F845
:1006A0003D00002520B984F83C50204600F078FA3F
:1006B000242084F83D002068016821F001010160D8
:1006C0002068016841F4004101602068016821F45C
:1006D0000041016000F0CAFB4D4A6168914201D8B7
:1006E0004C4900E04C49884201D2012070BD4B4981
:1006F0002368B0FBF1F15E6826F03F060E435E60B2
:100700006368934206D94FF4967359434FF47A7352
:10071000B1FBF3F12368491C1E6A26F03F06314302
:1007200019626168914210D84900401EB0FBF1F295
:10073000521CC2F30B02042A01D2042022E0B0FBB7
:10074000F1F0401CC0F30B001CE0A268F2B301EB17
:10075000C10303EB0116431EB3FBF6F35B1C43F42A
:1007600080431B0549D092B301EBC10202EB01119A
:10077000401EB0FBF1F0401CC0F30B0040F4804081
:1007800040F400402168CA694CF6FF739A43104355
:10079000C861D4E9071001432068026822F0C00252
:1007A00011430160D4E9030101432068826848F2E3
:1007B000FF339A4311438160D4E90501084321685E
:1007C000CA6822F0FF021043C86001E00EE016E0A4
:1007D0002068016841F0010101602564202084F84F
:1007E0003D00256384F83E50002070BD01EB4106BA
:1007F000431EB3FBF6F35B1CB3E70120C2E701EB3A
:100800004101401EB0FBF1F0401CC0F30B00B7E704
:10081000A086010080841E0000093D0040420F00B8
:100820002DE9FF4F83B00025DDE910799A46934604
:100830000446DDF848800095FFF728FF064694F847
:100840003D0020287CD119230122854920460096AD
:1008500001F066FC0028F5D194F83C0001286FD027
:10086000012084F83C0020680168C90703D10168B1
:1008700041F0010101602068016821F4006101601C
:10088000222084F83D00402084F83E002564676201
:10089000A4F82A90608D20857248E062CDE9008638
:1008A00053465A462046049901F03CFB00287DD16E
:1008B000208DDFF8B491202768B1012814D00228D8
:1008C000206801681ED041F48061016020684169A0
:1008D00080690090B6E020684169816900910168F3
:1008E00041F400710160ADE02068016821F480618D
:1008F000016072B62068416981690091016841F424
:1009000000710AE041F40061016072B6206841693B
:1009100081690091016821F48061016062B691E013
:10092000032868D801280CD0022843464FF0000263
:100930004946204600960FD001F0F2FBB0BB10E014
:100940008BE032464146204601F090FC70BB2068A7
:100950000069616A08706CE001F0E2FB30BB72B6BE
:1009600034E02068016821F48061016072B620687B
:100970000069616A0870606A401C6062208D401ED8
:100980002085608D401E6085384846F2A8110068B9
:10099000B0FBF1F0C0EBC00000EB80000090401E07
:1009A000009008D020684069C04300E029E040077B
:1009B0000CD50098F3E744F8305F6773A57320699E
:1009C00040F02000206162B625731AE020680168BB
:1009D00041F40071016020680069616A0870606A12
:1009E000401C6062218D491E2185618D491E6185F3
:1009F00062B621681BE032464146204601F036FCD3
:100A000018B1012007B0BDE8F08F20680069616A65
:100A10000870606A401C6062218D491E2185618DCD
:100A2000491E618521684A69D24352070AD409697F
:100A30000170606A401C6062208D401E2085608DC0
:100A4000401E6085208D00287FF46AAF84F83D70D9
:100A500084F83E5084F83C50D4E70220D2E70000EE
:100A6000020010000000FFFF04000100A0000020B1
:100A70002DE9FF4F83B09A46DDE91197934604466E
:100A8000DDF84080FFF702FE054694F83D0020287F
:100A90007FD11923012240492046009501F040FBF7
:100AA000002876D194F83C00012872D0012084F807
:100AB0003C0020680168C90703D1016841F00101C9
:100AC00001602068016821F400610160212084F840
:100AD0003D00402084F83E0000262664C4F82480AF
:100AE000A4F82A90608D20852C48E062CDE900753D
:100AF00053465A462046049901F092FA70B930E004
:100B00002A463946204601F0E9FB58B1206C0428FA
:100B100004D12068016841F400710160012007B030
:100B2000BDE8F08F606A216800780861606A401C47
:100B30006062218D491E89B22185628D521E6285B7
:100B400022685369DB435B070BD469B100781061FD
:100B5000606A401C6062208D401E2085608D401EB2
:100B60006085208D0028CBD12A463946204601F0E9
:100B7000ABFA0028CAD154F83D0B016841F400716A
:100B80000160202004F81E09E67766770020C6E79A
:100B9000FFE70220C3E70000020010000000FFFF93
:100BA00010B586B000210091019102910391006877
:100BB0001349884222D1134CA06940F00800A0617B
:100BC000A069694600F0080004904FF4407000905E
:100BD00012200190032003900B48FFF767FC0B489D
:100BE000416841F0E06141F002014160E06940F498
:100BF0000010E061E06900F40010049006B010BD40
:100C00000054004000100240000C01400000014070
:100C10000248816802781144816070479400002086
:100C2000074810B5016841F010010160032000F091
:100C300075F80F2000F006F800F024F8002010BD31
:100C40000020024070B50D4D04464FF47A712878AB
:100C5000B1FBF0F00A490968B1FBF0F000F0DCFAF2
:100C600048B9102C07D200222146501E00F036F859
:100C700000206C6070BD012070BD00009400002059
:100C8000A00000200C4808B5816941F00101816194
:100C9000816901F001010091C16941F08051C16198
:100CA000C06900F0805000900448416821F0E06184
:100CB00041F00071416008BD001002400000014099
:100CC000002809DB00F01F0201219140400980004B
:100CD00000F1E020C0F8001170470000F0B40E4BA6
:100CE0001B680C46C3F30223C3F10705042D00D98A
:100CF0000425191D072901D2002300E0DB1E01266F
:100D000006FA05F1491E214099409E40761E164084
:100D10003143F0BC02F0EFB80CED00E0064900F002
:100D2000070208684FF6FF03184040EA0220034A12
:100D300010430860704700000CED00E00000FA0569
:100D40002DE9F0470F46050061D0434E306800F0B2
:100D50000700B84209D2306820F0070038433060FD
:100D6000306800F00700B84251D128683B4C810739
:100D700012D5400703D5606840F4E06060602878D1
:100D8000000703D5606840F4605060606068A9683F
:100D900020F0F000084360602878C00728D0686819
:100DA000012810D02168022810D0890700292EDAE6
:100DB000616821F0030101436160FFF767FC804631
:100DC00041F288390DE021688903EFE78901EDE7F9
:100DD000FFF75CFCA0EB0801494502D90320BDE800
:100DE000F0876068696800F00C00B0EB810FEFD10C
:100DF000306800F00700B8420BD9306820F00700D7
:100E000038433060306800F00700B84201D001205C
:100E1000E5E72878400705D56068E96820F4E060D8
:100E2000084360602878000706D56068296920F4C7
:100E3000605040EAC100606000F038F86168084A1C
:100E4000C1F30311515CC8400649086006480068B8
:100E5000FFF7F8FE0020C2E7002002400010024029
:100E6000C8420008A000002098000020044805495E
:100E700000684968044AC1F30221515CC8407047C8
:100E8000A000002000100240D84200080448054994
:100E900000684968044AC1F3C221515CC8407047E8
:100EA000A000002000100240D84200080E4A5168FD
:100EB0000E4801F00C03042B11D0082B0FD10C4865
:100EC000C1F38343C903C05C0AD55168084AC1F322
:100ED0004041921E515C054A5043B0FBF1F070470F
:100EE00004494843704700000010024000127A0095
:100EF000B842000800093D002DE9F84F040070D009
:100F00002078C04DC00749D06868C0F3810001282F
:100F100007D06868C0F38100022809D16868C0035F
:100F200006D52868800339D560680028E7D035E009
:100F30006068B0F5803F0BD010B1B0F5A02F11D094
:100F4000286820F480302860286820F4802002E09F
:100F5000286840F480302860606890B1FFF796FB05
:100F600006460AE0286840F480202860F0E700BFC9
:100F7000FFF78CFB801B642873D828688003F7D5A3
:100F80000CE0FFF783FB064605E000BFFFF77EFBA2
:100F9000801B6428F0D828688003F7D420789A4E04
:100FA00080074FF001094FF0000839D5686810F04C
:100FB0000C0F07D06868C0F38100022809D1686867
:100FC000C00306D42868800714D52069012808D1F9
:100FD00010E02069B0B1C6F80090FFF757FB074654
:100FE00005E00AE1FFF752FBC01B0228C4D82868BD
:100FF0008007F7D52868616920F0F80040EAC10051
:1010000028600DE0C6F80080FFF740FB074604E0CB
:10101000FFF73CFBC01B022823D828688007F7D4C1
:10102000207800072CD57948A169D9B1C0F8009083
:10103000FFF72CFB074604E0FFF728FBC01B022844
:101040000FD8686A8007F7D571484FF4FA510068E5
:10105000B0FBF1F0009000BF0098411E0091FAD261
:101060000EE080E0C0F80080FFF710FB074604E0C8
:10107000FFF70CFBC01B022875D8686A8007F7D4FD
:101080002078400760D5E8690027C00008D4E869E7
:1010900040F08050E861E869012700F0805000903E
:1010A0005C480168C90513D40168834641F4807126
:1010B0000160FFF7EBFA824606E000BFFFF7E6FAB1
:1010C000A0EB0A0064284ED8DBF80000C005F5D577
:1010D000E06801280AD008B1052813D0286A20F05A
:1010E00001002862286A20F0040002E0286A40F02B
:1010F00001002862E06841F2883B98B1FFF7C6FA28
:1011000082460BE0286A40F004002862EEE700BF48
:10111000FFF7BCFAA0EB0A0159455AD8286A8007A4
:10112000F6D50CE0FFF7B2FA824605E0FFF7AEFA1B
:10113000A0EB0A0159454CD8286A8007F6D41FB1A4
:10114000E86920F08050E861E06988B36968C1F31C
:101150008101022944D00228C6F8608004D0FFF73C
:1011600095FA044638E034E0FFF790FA074604E0C9
:10117000FFF78CFAC01B02282BD828688001F7D40F
:10118000206AB0F5803F05D16868A16820F400307E
:1011900008436860D4E908010843696821F47411C0
:1011A00008436860C6F86090FFF770FA044606E0EE
:1011B00025E000BFFFF76AFA001B022809D828685B
:1011C0008001F7D51BE000BFFFF760FA001B022883
:1011D00002D90320BDE8F88F28688001F4D40EE01E
:1011E0000128F7D06868226A00F48031914204D166
:1011F000616A00F47010884201D00120EAE7002003
:10120000E8E7000000100240000042428004424231
:10121000A00000200070004010B5401EB0F1807F9B
:1012200001D3012010BD4FF0E02460610F21601751
:1012300001F061FE0020A06107202061002010BDA8
:101240007047704770B590F83C20012A26D00124E1
:1012500080F83C40022280F83D2003685A689D686F
:1012600022F070060A6832435A600D4B02689A42B7
:1012700008D0B2F1804F05D00A4B9A4202D00A4BF7
:101280009A4204D1496825F080031943916080F89F
:101290003D40002180F83C10084670BD022070BD22
:1012A000002C0140000400400008004010B504007C
:1012B00003D094F83D0010B107E0012010BD0020DC
:1012C00084F83C00204600F01FF8022084F83D001E
:1012D000211D206801F094FB012084F8460084F869
:1012E0003E0084F83F0084F8400084F8410084F810
:1012F000420084F8430084F8440084F8450084F8F0
:101300003D00002010BD000008B5114A01681148D9
:10131000914211D1816941F40061816180690022AB
:1013200000F40060009001211920FFF7D7FCBDE810
:1013300008401920FFF7C4BCB1F1804F07D1C16943
:1013400041F00101C161C06900F00100009008BDD9
:10135000002C01400010024090F83D10012901D0FE
:1013600001207047022180F83D100168CA6842F0F0
:101370000102CA6000680B49884208D0B0F1804F72
:1013800005D00949884202D00849884204D18168C1
:1013900001F00701062903D0016841F00101016055
:1013A00000207047002C014000040040000800406D
:1013B00070B5044690F83C000025012817D001269E
:1013C00084F83C60022084F83D002068826822F0A6
:1013D000770222F47F4282600868502838D00DDC02
:1013E00020284FD005DC90B3102811D14AE002200C
:1013F00070BD302846D040280AD13BE060282FD06D
:1014000070280DD0B0F5805F03D0B0F5005F12D02A
:10141000012584F83D60002084F83C00284670BD1A
:10142000CB68D1E90121206801F02DFB206881689B
:1014300041F0770109E0CB68D1E90121206801F092
:1014400022FB2068816841F480418160E1E719E076
:10145000CA684968206801F0CBFB5021206806E08B
:10146000CA684968206801F0D4FB6021206801F057
:1014700014FBCEE7CA684968206801F0B9FB402137
:101480002068F4E7226801461046F0E72DE9F041B4
:101490000D46040003D094F83D0018B108E0012087
:1014A000BDE8F081002084F83C00204600F040F8C0
:1014B000022084F83D002068816844F207029143CD
:1014C0008160211D206801F09BFA22689068916973
:1014D000166A2B68AF69034340F20330814341EA47
:1014E0000721A868EF6908434FF6FC418843E96883
:1014F00040EA0720014328692F6A000140EA0730CB
:10150000084369686D6926F0220646EA05152943F5
:1015100093602268906154F8460B0162012004F840
:101520001F09E0752076E0762077A0750020B7E7E8
:1015300000B585B0002100910191029103911F4BEC
:1015400002681F48C0219A4216D1C26942F00202C5
:10155000C261C26902F002020492826942F004028E
:1015600082618069009100F004000490694615488A
:10157000FEF79CFF05B000BD134B9A42FAD1C26939
:1015800042F00402C261C26902F00402049282695C
:1015900042F0080282618069009100F00800049026
:1015A00069460A48FEF782FF002211461E20FFF717
:1015B00095FB1E20FFF784FBDCE7000000040040E1
:1015C000001002400008014000080040000C0140EB
:1015D00070B590F83E60044690F83F5090F8423065
:1015E00090F84320022021B104290ED0012E1BD1F6
:1015F00014E0012E18D1012B16D184F83E0084F896
:10160000420001220021206820E0012D0CD1012A96
:101610000AD184F83F0084F8430014E0012D03D17F
:10162000012B01D1012A01D0012070BD84F83E00B8
:1016300084F83F0084F8420084F84300012200212E
:10164000206801F013FA01220421206801F00EFA4B
:101650002068016841F001010160002070BD704701
:1016600070B50446006801694FF00005C943890759
:1016700015D4C168C943890711D4E91E016101204D
:101680002077206880698007204602D0FFF7E7FFB7
:1016900004E000F0DBF8204600F06DF925772068C3
:1016A0000169C943490717D4C168C943490713D41D
:1016B0006FF004010161022020772068806910F436
:1016C000407F204602D0FFF7CAFF04E000F0BEF8DA
:1016D000204600F050F9257720680169C9430907C1
:1016E00016D4C168C943090712D46FF0080101611B
:1016F000042020772068C0698007204602D0FFF7C9
:10170000AEFF04E000F0A2F8204600F034F925779F
:1017100020680169C943C90617D4C168C943C9060D
:1017200013D46FF010010161082020772068C06990
:1017300010F4407F204602D0FFF791FF04E000F054
:1017400085F8204600F017F9257720680169C9431C
:10175000C90708D1C168C943C90704D1891E0161FD
:10176000204600F057F920680169C943090609D4E9
:10177000C168C943090605D46FF0800101612046A4
:10178000FFF75EFD20680169C943490609D4C168B5
:10179000C943490605D46FF040010161204600F0BD
:1017A0007FF920680169C94389060BD4C168C94320
:1017B000890607D46FF0200101612046BDE8704022
:1017C000FFF73FBD70BD000010B586B0002100914D
:1017D0000191029103910068B0F1804F2BD117481D
:1017E000816941F004018161816901F00401049182
:1017F000816941F0080181618069022400F00800DC
:1018000004900320CDE9000469460D480394FEF7D7
:101810004DFE4FF44060CDE9000469460948039449
:10182000FEF744FE0848416821F4407141F0E06150
:1018300041F40071416006B010BD0000001002408C
:1018400000080140000C014000000140704770B5E5
:10185000044690F83C0000260D4601280FD00120D8
:1018600084F83C006AB1042A1DD0082A2FD00C2A23
:101870003FD00126002084F83C00304670BD022095
:1018800070BD206801F012F92068816941F00801FB
:1018900081612068816921F004018161206881698A
:1018A0002A69114311E0206801F028F92068816954
:1018B00041F4006181612068816921F48061816166
:1018C000206881692A6941EA02218161D2E72068A2
:1018D00001F040F92068C16941F00801C161206848
:1018E000C16921F00401C1612068C1692A691143FD
:1018F00011E0206801F05AF92068C16941F40061E3
:10190000C1612068C16921F48061C1612068C16939
:101910002A6941EA0221C161ACE710B5040003D095
:1019200094F83D0010B107E0012010BD002084F8BC
:101930003C00204600F01EF8022084F83D00211DE6
:10194000206801F05DF8012084F8460084F83E002C
:1019500084F83F0084F8400084F8410084F8420095
:1019600084F8430084F8440084F8450084F83D007E
:10197000002010BD7047704710B50446022249B1DF
:1019800004290ED0082913D094F84100012816D05C
:10199000012010BD94F83E000128F9D184F83E20C2
:1019A0000FE094F83F000128F2D184F83F2008E0CE
:1019B00094F840000128EBD184F8402001E084F83D
:1019C00041200122206801F051F80F492068884227
:1019D00003D1426C42F4004242642068884208D03D
:1019E000B0F1804F05D00949884202D008498842A9
:1019F00004D1816801F00701062903D0016841F094
:101A000001010160002010BD002C014000040040D5
:101A1000000800401B4910B5884231D1FEF7C4FCD4
:101A200000F05CFF18480168184C09B24942616037
:101A300000210160164801681648006800F0B2FEF7
:101A4000A060A08801B2002000F040FEE0601248D3
:101A5000026812480168002000F076FE2061D4E997
:101A6000021211440144002000F005FED4E90201F5
:101A700008442169BDE81040411A012000F0FBBD77
:101A800010BD000018010020240400407C0000204C
:101A90004000002034000020480000203C000020CE
:101AA0007047704770470000F8B501680446086841
:101AB000CA684B6910F00F0F4FF0000559D003F0C2
:101AC000010602F49077374365D0C10705D0D105F0
:101AD00003D5616C41F001016164410705D5D90767
:101AE00003D0616C41F002016164810705D5D9071B
:101AF00003D0616C41F004016164010707D502F075
:101B00002001314303D0616C41F008016164616CD4
:101B100000293AD0800604D5900602D5204601F06F
:101B2000B9F820684069616CC0F38010090700D4DF
:101B300060B3204601F087F820684069400621D54F
:101B40002068143050E8001F21F0400140E80012E6
:101B5000002AF5D1E06BA8B16D494163E06BFEF757
:101B600059FC002811D0E06B416B01B0BDE8F0409A
:101B7000084783060FD593060DD52046BDE8F840EB
:101B800001F088B82046FFF78DFFF8BD2046FFF72B
:101B900089FF6564F8BD266B2023012E7CD1C60623
:101BA0007AD5D60678D508684868009048694FF01D
:101BB0000206400640D5E16B086840680004000C4E
:101BC000E8D0A28D8242E5D9E085886920282DD011
:101BD00020680C3050E8001F21F4807140E80012AA
:101BE000002AF5D12068143050E8001F21F00101CF
:101BF00040E80012002AF5D12068143050E8001F98
:101C000021F0400140E80012002AF5D184F842306A
:101C1000256320680C3050E8001F21F0100140E8D7
:101C20000012002AF5D1E06BFEF7D0FB6663A08DB1
:101C3000E18D401A81B22AE0A08DE18D401A81B277
:101C4000E08D0028A6D00029A4D022680C3252E8EA
:101C5000000F20F4907042E80007002FF5D12068B3
:101C6000143050E8002F22F0010240E80027002F36
:101C7000F5D184F84230256320680C3050E8002FFD
:101C800022F0100240E80023002BF5D166632046C5
:101C9000FFF707FFF8BDFFE705062BD5150629D589
:101CA00094F841002128F5D1A068B0F5805F01D1FA
:101CB0002069B0B1206A411C216221680078486027
:101CC000E08C401E0004000CE084E3D12068C16871
:101CD00021F08001C1602068C16841F04001C1600D
:101CE000D8E7206A0088C0F308004860206A801C9A
:101CF0002062E5E74006CDD55006CBD5CA68204620
:101D000022F04002CA6084F8413000F0F2F8C1E7E6
:101D1000372C000870B5040004D094F84100002569
:101D200010B106E0012070BD84F84050204600F05C
:101D300023F8242084F841002068C16821F4005170
:101D4000C160204601F008F82068016921F4904143
:101D500001612068416921F02A0141612068C16860
:101D600041F40051C1606564202084F8410084F88A
:101D700042006563002070BD30B585B0002400943A
:101D80000194029403940068184988422BD11848A2
:101D9000C16941F40031C161C16901F400310491AC
:101DA000816941F0040181618069124D00F00400F5
:101DB00004900420009002200190032003906946C3
:101DC0002846FEF773FB0820CDE900046946284643
:101DD0000294FEF76BFB002211462620FEF77EFFE1
:101DE0002620FEF76DFF05B030BD00000044004026
:101DF000001002400008014090F84230202B01D032
:101E00000220704721B11AB10023036301F000B82A
:101E1000012070470C4910B5884214D10B4C207832
:101E2000303802F06DF80A4902F082F8094901F0F1
:101E300027FF606100F0A0FD2146BDE810400122AF
:101E40000148FFF7D9BF10BD380200207C000020F8
:101E5000000020410000E1432DE9F843044690F8DA
:101E600041001F4616460D46202802D00220BDE83C
:101E7000F8837DB176B100206064212084F84100B0
:101E8000FEF704FCA6848046E684A068B0F5805F77
:101E900002D003E00120EAE7206910B12E460025B8
:101EA0000EE000260CE08021204600F0CCFFA0B917
:101EB000AEB116F8010B21684860E08C401EE0844A
:101EC000E08C43464FF0000200970028EBD14FF022
:101ED0004001204600F0B7FF30B10320C7E735F8D6
:101EE000020BC0F30800E6E7202084F84100002040
:101EF000BDE77047FEE701684A69D24352050FD437
:101F00006FF480624A61002140F8301F2022427342
:101F10008173026942F0040202610173012070477B
:101F2000002070472DE9F84F0446006889460B9D54
:101F300001689846174641F4806101602068016895
:101F400041F48071016000954FF0011B0022594659
:101F500020460A9B00F0E4F84FF4007A40B1206874
:101F60000068C00501D5C4F840A00320BDE8F88F83
:101F7000216809F0FE0008612B46284920460A9A8C
:101F800000F016F9F0BB20684169806900902A468C
:101F900020460A9900F0A2F940B1206C04283AD1F9
:101FA0002068016841F40071016034E0FEB2B8F1CC
:101FB000010F09D02168380A08612A4620460A998B
:101FC00000F08CF90028E8D1206806612A462046F6
:101FD0000A9900F083F90028DFD12068016841F4F4
:101FE0008071016000950022594620460A9B00F04E
:101FF00097F80028B3D1216809F0FF0040F00100F4
:10200000086100E007E02B46044920460A9A00F0E8
:10201000CFF80028AAD00120A8E7000002000100A4
:102020002DE9F843044600680D46DDE9089701688C
:102030009846164641F4807101604B4600224FF0ED
:1020400001112046009700F06BF848B12068006845
:10205000C00502D54FF4007020640320BDE8F8836A
:10206000216805F0FE0008613B464A4615492046B6
:1020700000F09EF888B920684169806900903A466E
:102080004946204600F02AF948B1206C042804D1C2
:102090002068016841F4007101600120DEE7F5B2BB
:1020A000B8F1010F09D02168300A08613A46494663
:1020B000204600F013F90028E7D1206805610020D0
:1020C000CCE700000200010070B516460D4604463C
:1020D0001EE02046FFF70FFF08B1012070BD681C0D
:1020E00016D0FEF7D3FA801BA84200D885B9206825
:1020F0004069C04340070BD5002044F8300F202131
:102100006173A073216941F0200121612073E4E72C
:1021100020684069C0434007DBD4002070BD000048
:102120002DE9F047984617460D460446C1F3074689
:10213000DDF820902AE000BFB8F1FF3F26D0FEF77F
:10214000A5FAA0EB0901414502D8B8F1000F1DD155
:102150002068012E16D0806925EA00000004000CDA
:1021600012D00020B84211D1002044F8300F2021B5
:102170006173A073216941F0200121612073012066
:10218000BDE8F0874069E7E70120EBE72068012E12
:102190000AD0806925EA00000004000C06D0002067
:1021A000B842C9D00020EBE74069F3E70120F7E728
:1021B0002DE9F047984616460D4604464FF00009B3
:1021C0004FF0200AC1F3074723E020684069C0436D
:1021D000400515D42068016841F400710160216850
:1021E0006FF480604861C4F8309084F83DA084F8B2
:1021F0003E90216C41F00401216484F83C9021E080
:10220000701C06D0FEF742FAA0EB0800B04203D8DB
:1022100016B1012F1FD021E02068012F15D0806951
:1022200025EA00000004000C18D000BF44F8309FDD
:1022300084F80DA084F80E90216941F020012161FD
:1022400084F80C900120BDE8F087406925EA000081
:102250000004000CEAD12068406901E02068806930
:1022600025EA00000004000CAFD1ECE72DE9F041B5
:10227000002590460E460446202728E04069C043CA
:10228000C0060CD454F8301B6FF01000486144F8BD
:1022900010596777A577206A2062257714E0FEF74A
:1022A000F5F9A0EB0800B04200D886B92068406973
:1022B000C04340060BD544F8305F6773A5732069AF
:1022C00040F02000206125730120BDE8F0812068E6
:1022D0004169C9434906D1D40020F6E770B51646D6
:1022E0000D4604461EE02046FFF705FE08B101201A
:1022F00070BD681C16D0FEF7C9F9801BA84200D833
:1023000085B920684069C04300060BD5002044F819
:10231000300F20216173A073216941F020012161F8
:102320002073E4E720684069C0430006DBD4002046
:1023300070BD10B5752000F019F8682815D101217D
:102340006B2000F027F80021192000F023F8042169
:102350001A2000F01FF818211B2000F01BF80121A3
:10236000BDE810401C2000F015B810BD1FB54FF09F
:10237000FF33012203A98DE80E0013460246D02147
:102380000348FEF74DFA9DF80C0004B010BD0000A4
:10239000C400002003B583B04FF0FF33012204A92D
:1023A0008DE80E0013460246D0210248FEF760FB7E
:1023B00005B000BDC40000200D4808B5816941F09A
:1023C00020018161816901F020010091816941F062
:1023D00004018161816901F004010091816941F08A
:1023E00008018161806900F00800009008BD0000CC
:1023F000001002400D4810B50B4901600C494160C6
:1024000000214FF480428160C0E903124161816183
:10241000C1610162FEF740F9002803D0BDE8104019
:10242000FDF7C0BF10BD000000540040C4000020F4
:10243000801A060010B586B0002418480094019454
:1024400002940394049414490594016041F61F41D9
:10245000C0E901146321C0E903148021C0E90541EA
:10246000FEF724FF08B1FDF79DFF4FF48050009068
:1024700069460A48FEF79CFF08B1FDF793FF0494F4
:1024800004A906480594FEF7DDFE002801D0FDF7FB
:1024900089FF06B010BD0000002C0140180100208B
:1024A00010B58EB000240794089409940A940B94F4
:1024B0001C2168460C94FDF787FE29484FF08041A7
:1024C000C0E9001441F61F41C0E902410461846182
:1024D000FEF7ECFE08B1FDF765FF4FF48050079062
:1024E00007A91F48FEF764FF08B1FDF75BFF1C4812
:1024F000FFF713FA08B1FDF755FF0B940BA9184825
:102500000C94FEF79FFE08B1FDF74CFF6020CDE96B
:10251000000402940022694611480494FFF797F9D9
:1025200008B1FDF73FFF042269460D48FFF78FF918
:1025300008B1FDF737FF082269460948FFF787F918
:1025400008B1FDF72FFF0C2269460548FFF77FF918
:1025500008B1FDF727FF0248FFF736F90EB010BDAE
:102560006001002010B58CB024216846FDF72CFED8
:1025700000241648099414490A94C0E900144FF63F
:10258000FF71C0E90241046184610320CDE90004C8
:102590000120CDE902040C210491CDE90540CDE9EB
:1025A000074169460948FEF771FF08B1FDF7FAFED9
:1025B000099409A905480A94FEF744FE002801D0B1
:1025C000FDF7F0FE0CB010BD00040040A801002093
:1025D00010B58CB024216846FDF7F6FD002416489E
:1025E000099414490A94C0E900144FF6FF71C0E938
:1025F0000241046184610320CDE900040120CDE99A
:1026000002040C210491CDE90540CDE9074169465A
:102610000948FEF73BFF08B1FDF7C4FE099409A97C
:1026200005480A94FEF70EFE002801D0FDF7BAFE19
:102630000CB010BD00080040F00100200C4810B59F
:102640000A4901604FF4E1314160002181600C22B0
:10265000C160C0E904128161C161FFF75BFB002822
:1026600003D0BDE81040FDF79DBE10BD0044004002
:1026700038020020FEE710B501F5C872B2F5487FB8
:1026800021D94C4240B101281DD1002913DB084655
:1026900000F0AEF8002012E0002904DB084600F04C
:1026A0009BF8002003E0002000F096F82046BDE8EB
:1026B000104000F097B8002000F09AF82046BDE8DE
:1026C000104000F09BB810BDFEE7000070B51C4C38
:1026D0000E1A1A4D206A01F013FC294601F028FC5D
:1026E0000546304601F00CFC0146164801F020FC7E
:1026F000294601F0C5FA01F0E7FB2062E1690546D1
:10270000084442F210720021E061904201DCD042A4
:1027100000DAE161E06901F0F3FB216901F008FCF6
:102720000646284601F0ECFBE16801F001FC314669
:1027300001F0A6FABDE8704001F0C6BB3333333F69
:10274000540000209A99993E2DE9F041134C0E4611
:10275000074690461048616A01F0EAFB05461048BA
:10276000414601F0E5FB294601F08AFA0146A069DD
:1027700001F0DEFB0546384601F0C2FB314601F0B0
:10278000A3FC616901F0D4FB294601F079FABDE8A8
:10279000F04101F099BB00003333333F5400002077
:1027A0009A99993E70B50A4C0646606801F0C0FBE4
:1027B00005463046A16801F091FC216801F0B8FBA4
:1027C000294601F05DFABDE8704001F07DBB0000D4
:1027D00054000020704700000149096848637047B1
:1027E000600100200149096888637047600100208A
:1027F00001490968C8637047600100200149096800
:10280000086470476001002010B53C20FFF7AEFD62
:102810000E4C20703B20FFF7A9FD60703E20FFF7B3
:10282000A5FDA0703D20FFF7A1FDE0704020FFF75F
:102830009DFD20713F20FFF799FD607104482188BC
:10284000018061884180A188818010BDA4000020A2
:102850000000002070B54420FFF788FD1B4CA071DC
:102860004320FFF783FDE0714620FFF77FFD2072D4
:102870004520FFF77BFD60724820FFF777FDA072CF
:102880004720FFF773FDE072B4F9060001F038FB52
:102890000F4E314601F056FA01F016FB0D4DE8805F
:1028A000B4F9080001F02CFB314601F04BFA01F0BD
:1028B0000BFB2881B4F90A0001F022FB314601F03C
:1028C00041FA01F001FB688170BD0000A400002006
:1028D00033338341000000207047000070B5204C66
:1028E000AA20012620706070A6700C20E0701D48A0
:1028F000006801F0E9FA1C4D28802878207168787A
:1029000060711A48006801F0DFFA28802878A07109
:102910006878E0711648006801F0D6FA28802878B7
:102920002072687860720020A072E0722073607379
:10293000A073E6730146625C491C10441029FAD367
:10294000207400266868A119401C68606423012275
:102950000848FFF781FA761C112EF3D370BD0000F2
:10296000B0000020340000204C000020380000207F
:102970003C00002038020020014908607047000038
:1029800054000020FEF744B930B58FB028216846C6
:10299000FDF71AFC14210AA8FDF716FC0121080412
:1029A000CDE900100024029402250491CDE90750DE
:1029B0004FF4E01009906846FEF79EFA08B172B62F
:1029C000FEE70F20CDE90A054FF48060CDE90C4009
:1029D00002210AA80E94FEF7B3F9002801D072B6BE
:1029E000FEE70FB030BD70470148FEF739BE00006A
:1029F000180100200148FEF733BE0000F00100205E
:102A0000F0B50268164B174C174D4FF080479842AF
:102A100005D0B84203D0A04201D0A84203D122F091
:102A200070064A683243984205D0B84203D0A042AB
:102A300001D0A84203D122F44074CA6822434C69F1
:102A400022F08002224302608A68C2620A688262BF
:102A5000984201D10969016301214161F0BD000083
:102A6000002C0140000400400008004010B501F0B7
:102A70001F030121046A99408C430462016A9A4051
:102A80001143016210BD10B5846842EA032224F4A8
:102A90007F440A432243826010BD826822F07002A4
:102AA0000A4342F0070181607047000030B5036AB5
:102AB000026A22F0010202624268846924F073050E
:102AC0000C682C4323F002058B682B430A4DA84267
:102AD0000BD123F00805CB6822F440722B434D69DB
:102AE00023F0040315438A692A43426084614968DC
:102AF0004163036230BD0000002C014030B5026A22
:102B0000036A23F010030362436884690D6824F4A8
:102B1000E64444EA05248D6822F0200242EA0512C8
:102B20000B4DA8420ED1CD6822F0800242EA051278
:102B30004D6923F4406343EA85038D6922F0400226
:102B400043EA85034360846149688163026230BD62
:102B5000002C014030B5036A026A22F480720262DE
:102B60004268C46923F4007324F073050C682C4395
:102B70008D6843EA05230C4DA8420ED1CD6823F49D
:102B8000006343EA05234D6922F4405242EA0512EC
:102B90008D6923F4806342EA05124260C46149688A
:102BA000C163036230BD0000002C014030B5046AEF
:102BB000026A22F4805202624268C3690D6823F4FB
:102BC000E64343EA05238D6824F4005444EA0534BF
:102BD000064DA84204D14D6922F4804242EA851292
:102BE0004260C36149680164046230BD002C014049
:102BF00010B5036A046A24F001040462846924F0B5
:102C0000F00444EA021423F00A020A4384610262D7
:102C100010BD10B5036A046A24F0100404628469CC
:102C200023F0A00324F4704444EA023243EA011181
:102C30008261016210BD10B5406A0021C185C18466
:102C4000FEF730FF10BD01680C3151E8002F22F46F
:102C5000907241E80023002BF5D10168143151E84E
:102C6000002F22F0010241E80023002BF5D1016B77
:102C7000012909D101680C3151E8002F22F010021E
:102C800041E80023002BF5D1202180F842100021DB
:102C90000163704708B590F84210222901D0022044
:102CA00008BD82684FF480539A4201D1016921B175
:102CB000816A9A421BD04AB10AE00268816A52686E
:102CC000C2F308020A80816A891C08E0026972B1B5
:102CD0000268526802F07F020A70816A491C8162B0
:102CE000C18D491E0904090CC18503D01BE002688F
:102CF0005268F1E70168CA6822F02002CA600168E0
:102D0000CA6822F48072CA6001684A6922F001022E
:102D10004A61202180F8421000214163026B012AA0
:102D200003D0FFF777F8002008BD016301680C317C
:102D300051E8002F22F0100241E80023002BF5D1CA
:102D400001680A68D20602D50A6849680091818D37
:102D5000FEF7A7FEE7E7000070B5044600680169CA
:102D6000E26821F44051114301612169A0680843E0
:102D7000616908432168CA6841F20C639A430243BF
:102D8000CA6020684169A26921F440711143416120
:102D90001E492068884202D1FEF778F801E0FEF76C
:102DA00065F800EBC00101EB00126068642180004F
:102DB000B2FBF0F3B3FBF1F36FF018067343B2FB11
:102DC000F0F5B2FBF0F605EB8305322303EB0515B6
:102DD000B5FBF1F5B6FBF1F605F0F00505EB0615D0
:102DE000B2FBF0F6B2FBF0F0B0FBF1F06FF01802BE
:102DF000504306EB800003EB0010B0FBF1F02168BC
:102E000000F00F002844886070BD000000380140C9
:102E100081628285C28500214164222180F84210AE
:102E2000016921B10168CA6842F48072CA60016810
:102E30004A6942F001024A610068C16841F020011C
:102E4000C160002070472DE9F041984617460E46B4
:102E50000446069D27E0681C25D02DB1FDF716FC21
:102E6000A0EB0800A8421ED920680C3050E8001FD3
:102E700021F4D07140E80012002AF5D12068143006
:102E800050E8001F21F0010140E80012002AF5D1AE
:102E9000202084F8410084F84200002084F840009B
:102EA0000320BDE8F0812068006836EA000004D005
:102EB0000020B842CFD00020F3E70120F9E700005E
:102EC0000148FEF7F1BD000038020020FEE749008E
:102ED00050EAC12018BF04204A0D18BF40F001007D
:102EE00040F2FF72B2EB515F08BF40F002000128D0
:102EF00008BF052070470907090E002804DB00F110
:102F0000E02080F80014704700F00F0000F1E0208E
:102F100080F8141D70472DE9F0414F1E00EBC701EA
:102F20000446D1E9000115461E4637F006020DD0D1
:102F30002A46334600F0B0FC7F1E04EBC703D3E9FA
:102F4000002300F089FA37F00602F1D1022F25D0D4
:102F5000042F13D0062F18BFBDE8F0812A46334650
:102F600000F09AFCD4E90A2300F076FA2A463346A8
:102F700000F092FCD4E9082300F06EFA2A463346AA
:102F800000F08AFCD4E9062300F066FA2A463346AC
:102F900000F082FCD4E9042300F05EFA2A463346AE
:102FA00000F07AFCD4E9022300F056FA2A463346B0
:102FB00000F072FCD4E90023BDE8F04100F04CBA07
:102FC000012201F032B900F047BA0000024A0020A5
:102FD000110701F02AB9000001FDFFFF2DE9F84FAC
:102FE00004460D4621F0004000917349814211DCF6
:102FF0007249884201DC06D12CB120462946BDE841
:10300000F84FFFF7DDBF6E48002DCCBF6D496E490C
:10301000BDE8F88F6D49814211DD6D498142D8BF0D
:103020004FF0FF366DDD20462946FFF750FF04289C
:1030300008BFFFF7CBFF20462946BDE8F88F65495A
:10304000654F25F00045814233DD6449814219DD39
:10305000002632464FF080432046294600F0FCF916
:1030600080468A4601222046294601F0DEF80022E9
:103070003B4600F01BFD4246534600F09DFA0446D5
:103080000D463EE001260022BA463B462046294630
:1030900000F0E2F980460F460022534620462946BA
:1030A00000F004FD42463B4600F086FA04460D4619
:1030B00027E04B4981421BDDDFF828A102260022D0
:1030C00053462046294600F0E7FB00223B4600F02D
:1030D000C3F980460F46002253462046294600F099
:1030E000E5FC42463B4600F067FA04460D4608E020
:1030F000032622462B4600203B4900F05DFA044699
:103100000D4622462B461046194600F0C5FB8B465D
:10311000824602460B4600F0BFFB07460246334894
:1031200088460B4606217844FFF7F5FE52465B467B
:1031300000F0B2FB82462E488B463A4643460521B4
:103140007844FFF7E8FE3A46434600F0A5FB024606
:103150000B46002E504659460CDA00F07DF9224607
:103160002B4600F099FB01B022462B46BDE8F04FFC
:1031700000F090BC00F070F922462B4600F08CFB6A
:103180001C4A7A4402EBC603D3E9002300F08EFC0C
:1031900022462B4600F08AFC174A7A4402EBC6030B
:1031A000D3E9002300F076FC009A002AB8BF81F032
:1031B0000041BDE8F88F0000000010440000F07FDF
:1031C000182D4454FB21F93FFB21F9BF0000DC3FDF
:1031D0000000203E0000F33F0000F03F0000E63F0B
:1031E000008003400000F83F0000F0BF1E12000006
:1031F000DC1100007A110000421100002DE9F04DB1
:103200009446CCF1000423F000464CEA0404524FEB
:1032100046EAD4749A46884621F00042BC4206D859
:10322000454240EA050442EAD474BC4204D9BDE8F0
:10323000F04D6246FFF7C7BEAAF14055A5F17F6584
:1032400055EA0C040BD0022404EAAA74434DDFF8BB
:1032500010E144EAD87452EA000B04D00CE0BDE857
:10326000F04DFFF7BBBE002C14BF012CBDE8F08D64
:10327000022C30D0032C32D056EA0C0B0AD0BE42BE
:1032800020D1BA4209D126F0804622F0804233464E
:10329000114617E000291ADB25E0DFF8C8B0FB442F
:1032A000002C04BFDBE90001BDE8F08D012C02BF5A
:1032B000DBE9000181F00041BDE8F08D022C0AD06D
:1032C000032C0CD0BA4212D1B8F1000F0BDA23480C
:1032D0002549BDE8F08D28462449BDE8F08D2846F3
:1032E0007146BDE8F08D1D482149BDE8F08D921B67
:1032F00012153C2AC4BF19481D490EDCBAF1000F53
:10330000BEBF12F13C0F0020014606DB624600F012
:1033100053F921F00041FFF761FE002C08BFBDE822
:10332000F08D012C04BF81F00041BDE8F08D114A01
:10333000114B022C07D000F0B9FB2A46BDE8F04D36
:103340000A4B00F0B3BB00F0B1FB2A46BDE8F04DDC
:10335000064B00F09FBB00000000F07F182D445486
:10336000FB2109C0D6100000FB21F9BFFB21094059
:10337000FB21F93F075C143326A6A13CFDF750FC66
:10338000FFF702FBFFF718F8FFF734F8FFF788F8AC
:10339000FFF7E8F8FFF74EF8FFF71AF9FFF74EF9D5
:1033A0000F48FDF7D9FF00210E48FEF7E5FA04218A
:1033B0000C48FEF7E1FA08210A48FEF7DDFA0C2175
:1033C0000848FEF7D9FA3C210748FEF701F9FEF755
:1033D000B0FF012205490648FEF70EFDFEE700009A
:1033E0001801002060010020A80100207C000020BE
:1033F0003802002021F00042A2F16052B2F5801F95
:1034000001F0004328BFD2F17F6C0BD95FEA001CAA
:1034100043EAC20242EB507018BF704728BF20F049
:1034200001007047B2F5801FBCBF184670474FEAD5
:10343000410C1CF5001F02D2084600F040BE70B5DA
:1034400000F0D4FA00000089FFF7F6BF4FF000400B
:10345000A0F580007047000010B591EA030F48BF47
:1034600083F0004300F12A83841A71EB030C05D228
:10347000121943EB0C03001B61EB0C01DFF824E194
:103480004FEA1154A4EB135C1EEA430F18BF9EEAE7
:10349000445F73D023EA0E03DCF1200E21EA0451CD
:1034A00043F4801332D322FA0CFE10EB0E0023FA01
:1034B0000CFE41EB0E01CCF1200E03FA0EFE10EBD8
:1034C0000E0051F10001B1F5801FCCF1200E32D277
:1034D00001EB045112FA0EF2BDE8104058BF7047DC
:1034E000401C38BF5FEA420218BF7047002814BF73
:1034F00020F0010041F100014FEA410313F5001FE4
:1035000038BF7047A1F1C04100F0BEBA012A43EBB9
:103510000302ACF1200CDCF11F0E32BF4FF0000EA5
:1035200023FA0CF310EB030041EB0451B4EB115FF1
:10353000D0D0A1EB045101F5801149085FEA3000B9
:1035400001EB04510ED350F1000038BF12FA0EFE09
:1035500008D1BDE81040C9E7401C38BF5FEA42020D
:10356000CAD1C3E7BDE810404FEA410313F5001F7D
:1035700038BF7047A1F1C04100F086BA9EEA445FAF
:1035800008D011EA5E0FBDE8104004BF01F0004111
:1035900000207047BDE8104070B500F027FA00BF6A
:1035A00064FBBE3E0000E0FF02494FF0000000F067
:1035B0000ABE00BF0000F87F2DE9C04130B4DFF83B
:1035C000A0C23CEA111418BF3CEA131400F0EC80CE
:1035D00081EA03051CEA111444EAD57418BF1CEAF9
:1035E000131500F0C780A4EB05044FF0004545EA31
:1035F000C12145EAC32341EA505143EA525304F141
:103600007F74994204F500344FEAC0204FEAC22289
:1036100008BF904200F09C804FEA13650FF24016FD
:10362000765D4FEA134506FB05F7C7F1807706FB89
:1036300007F74FEAD737A7FB03687642C8F580380B
:10364000A7FB06CE38BFA8F1010807FB08E64FF03C
:10365000000EA6FB028CE6FB03CEDCF1000CCEF1E3
:10366000004E38BFAEF1010EA6FB0C584FF000071C
:103670004FF00005E6FB0E87A1FB08C6A0FB07CEB6
:1036800016EB0E0645F10005E1FB076515F1E04E6E
:103690007EBFA4F580345FEA46066D4116F18007CF
:1036A00045F100054FEA17274FEA066647EA056726
:1036B000A6F1DE46B6F1805F4FEA15251FD93846E0
:1036C00024F0010C05EBC471BCF1FE6F01EB0C1191
:1036D00002D8F0BCBDE8008124425CBF01F5801E29
:1036E0009EEAC47F02D4F0BCBDE80081244238D4F5
:1036F000F0BCA1F1C041BDE8004100F0C5B94FEAFE
:10370000D22242EA43524FEAD323A7FB02864FEA72
:10371000D02040EA415007FB03661EEA0E0F4FEA35
:10372000D12105FB026658BFA6EB0056B6EB00564A
:103730004FEA520E4EEAC37E18EB0E0E56EB530EB6
:10374000BDD518EB02085E417F1C55F10005B6E7B8
:103750004FF480154FF000074FF000064FF00008BF
:10376000ADE7F0BC4FF0000001F1C04101F00041B5
:10377000BDE8008111EA0C1F0CEA131500D00CE023
:1037800013EA0C1F00F025804FF00000F0BC81EA26
:10379000030101F00041BDE80081F0BCBDE800413B
:1037A00081EA030100F070B9F0BCBDE8004170B5DA
:1037B00000F01CF9097EFC3E00F007B881EA030125
:1037C0004FF0000001F00041704781EA030100F072
:1037D0005BB9F0BCBDE800414FF0000021497047E3
:1037E000FFFDFBF9F7F5F4F2F0EEEDEBE9E8E6E4C6
:1037F000E3E1E0DEDDDBDAD8D7D5D4D3D1D0CFCD4D
:10380000CCCBCAC8C7C6C5C4C2C1C0BFBEBDBCBB85
:10381000BAB9B8B7B6B5B4B3B2B1B0AFAEADACAB80
:10382000AAA9A8A8A7A6A5A4A3A3A2A1A09F9F9E5A
:103830009D9C9C9B9A99999897979695959493930C
:10384000929191908F8F8E8E8D8C8C8B8B8A8989A3
:103850008888878786858584848383828281818026
:103860000000FF070000F87F10F0004248BF404210
:10387000B0FA80F310FA03F10AD0C3F11D0303F587
:1038800080634FEA415002EB035202EBD1217047B3
:103890004FF0000070470000DFF848C170B51CEA27
:1038A000111E1EBF1CEA13159EEA0C0F95EA0C0FA1
:1038B00000F06F8081EA030423EA4C134EEAD47EC1
:1038C00021EA4C1141F4801143F48013AE44A1FB72
:1038D000024CA0FB0365AEF17F7E361955EB0C055B
:1038E000A1FB034C4CF10003A0FB021C16EB0C06E1
:1038F000654153F10003094218BF46F0010613F475
:10390000007F0BD14FEA03314FEA0530340341EA1F
:10391000155140EA16506FF003020AE04FEAC32146
:103920004FEAC520F40241EA555140EA56506FF083
:10393000020202EB2E4201EB025585EACE710AD05B
:103940005FEA440C18BF24F0004450F1000041F13C
:10395000000120EAD47040F2FE7C624500D270BDC6
:10396000A84214BF4FF080444FF04044002E08BFDF
:103970000024BEF1806FA8BFA1F1C041BDE8704036
:1039800080F282804FF0000001F1C04101F000415F
:1039900070479EEA0C0F0CEA131518BF95EA0C0F3E
:1039A00006D04FF0000081EA030E0EF0004170BD1A
:1039B00000F01CF88900013E00F007B800F009B8DB
:1039C0004FEA430C5FEA5C5C08D081EA030100F037
:1039D0005BB84FEA410C5FEA5C5CF6D14FF0000047
:1039E000014970470000FF070000F87F0EF1020E4A
:1039F0002EF0030E5EF8046B364205D4012A43EB29
:103A0000030515F5001F12D8012841EB010C1CF528
:103A1000001F0CD80ED14FEAD17C15F5001F0CEB1E
:103A20004C0C0CF1020C08BF4CEBD37C04E04FF0C3
:103A3000080C01E04FEAD37C0CEB4C0526FA05F6A6
:103A400006F00706B6F1040C06D20EEB860CBDE8B4
:103A500070404CF0010C6047DFE80CF0090B0202EB
:103A60004FF000414FF00000A1F5002170BD194654
:103A70001046012851EB010418BFD4F5001484BF8F
:103A8000002001F0004170BD0808A0F500114FEAC8
:103A90003101704791EA030F10B581F000413FF505
:103AA000E3AC83F0004300F009B8000010B591EAE0
:103AB000030F48BF83F000433FF5D6AC841A71EB87
:103AC000030C07D212198CF0004C43EB0C03001BC3
:103AD00061EB0C01DFF8A4E14FEA1154A4EB135C95
:103AE0001EEA430F18BF9EEA445F00F0B08023EA4D
:103AF0006E03524221EA0451C3EB6E0338BF5B1ED2
:103B0000DCF1200E25D322FA0CFE10EB0E0043FA56
:103B10000CFE41EB0E01CCF1200E03FA0EFE10EB71
:103B20000E0051F10001CCF1200E29D412FA0EF250
:103B300001EB0451BDE8104058BF7047401C1CBF4A
:103B4000B2F1004F704700280CBF491C20F0010063
:103B5000704712EB020E43EB030218BF4FF0010E49
:103B60004EEA4202ACF1200CDCF11E0E54D943FAAD
:103B70000CFE10EB0E0051F1FF31CCF11E0ED5D52D
:103B80000EF1010E12FA0EFE404141EB010101EB74
:103B9000445C5FEA5C5C10D910EBDE7001EB045111
:103BA00038BFBEF1004FBDE8104018BF7047002875
:103BB0000CBF491C20F00100704730D24FEAD42CD2
:103BC00011F5001124F400641BD0B1FA81F20B3A14
:103BD000A41AA41ED2F12003914030FA03F3194332
:103BE000904001EBCC71002C01EB0451BDE810407A
:103BF000A8BF704701F1C0414FF0000001F0004143
:103C00007047B0FA80F310FA03F100D110BDE41A46
:103C1000173C4805C90AE4E701EB045110BD4910FF
:103C200001EB0451BDE810404FEA300002E04FF0D4
:103C3000000170474A0008BF0042F8D0B2F5001FEB
:103C400028BF704701F000414FF0000070479EEA26
:103C5000445F07D011EA5E0FBDE8104004BF0021A9
:103C600000207047BDE8104070B5FFF7BFFE00BFF1
:103C700040DFF63E83F00041104670470000E0FF51
:103C800090EA010F48BF81F0004100F12E82421AF4
:103C90003CBF801A89184FEAD0524FF07F4C1CEA83
:103CA000410FA2EBD15318BF9CEA026F00F03B809A
:103CB0004FF0004C4CEA00204CEA012121FA03FCB1
:103CC00010EB0C0C1ED202F1FF325FEA1C2040EB1D
:103CD000C25038BF70471CF07F0F4FEA400C18BF2E
:103CE000BCF17F4F38BF7047C3F12003994008BF34
:103CF00020F00100BCF17F4F38BF7047A0F1C040F9
:103D000000F0DDB94FEA3C00000A40EBC25028BF8A
:103D10001CF0FF0F4FEA400CE6D018BFBCF17F4FFC
:103D200038BF7047EAE79CEA026F05D010EA5C0FE3
:103D300008BF00F00040704710B500F07AF900BFEE
:103D400064FBBE3E4FF47F0C1CEAD0121EBF1CEA7F
:103D5000D11392EA0C0F93EA0C0F00F0858090EAE1
:103D6000010F48BF42F4807240F4000C41F400009F
:103D70002CF07F4120F07F4000B58142A2EB03028E
:103D80000FF2081CACEB504EC0F100009EF800E0B2
:103D90004FEA4E0E00FB0EFC38BF49004FEA2C1CC8
:103DA00002F5FA020CFB0EF34FEACE1E4FEA112C7D
:103DB0004FEAC1210EEB635E42EB22420EFB0CFC8C
:103DC0004FEA1C5300FB03114FEA112C4FEA01315B
:103DD0000EFB0CFC4FEADC4C00FB0C11C14228BF6F
:103DE00009184CEB03335DF804EB10EB410143EB96
:103DF000C250B2F57C0F38BF704729D512F0F00FD2
:103E00001CBF00F1C04000F0004070470081828379
:103E10008485868788898B8C8D8E8F9192939596D9
:103E200097999A9C9D9FA0A2A3A5A7A8AAACAEB063
:103E3000B2B3B5B7B9BCBEC0C2C5C7C9CCCED1D468
:103E4000D7D9DCDFE2E6E9ECF0F3F7FAFE00000098
:103E50004FEA400C0CF1807CBCF17E4F28BF7047CC
:103E6000B0F1C04000F02BB990EA010F0CEAD11379
:103E700048BF42F48072624538BF634507D213F4ED
:103E80007F0F16D080EA010000F00040704710B5A7
:103E900000F0CFF8097EFC3E00F005B880EA010092
:103EA00000F00040704780EA010000F0004000F0A0
:103EB00006B912F47F0F04BF0248704780EA010080
:103EC00000F0FDB80000C07F41000B0ED3F19E0250
:103ED00008D950F400034FEA032323FA02F048BF45
:103EE0004042704710B500F0A4F800BF499224800A
:103EF000002070476FF0004282EA20007047000007
:103F000010F0004148BF4042B0FA80F310FA03F2CB
:103F1000C3F19D030BD051EAC35101EB12205306AC
:103F200038BF704700F1010008BF20F00100704762
:103F30004FF47F0C1CEAD0121EBF1CEAD11392EA88
:103F40000C0F93EA0C0F00F0478090EA010F48BF76
:103F500042F480724FF0004C4CEA00204CEA012100
:103F600002EB0302A0FB0113A2F50002002918BF17
:103F700043F001035B0028BF4FEA330342EB2242C8
:103F80005FEA132C4CEBC2502EBFBCEB436FB2F573
:103F90007C0F70474FEA036CBCF1004F08BF20F064
:103FA0000100B2F57C0F38BF70470BD582F0FF02DD
:103FB00012F5803FC8BF704700F1C040D8BF00F085
:103FC0000040704700F5000C5FEA4C0C48BF70479A
:103FD000B0F1C04000F073B890EA010F0CEAD113C1
:103FE00048BF42F48072624538BF634504D280EA1C
:103FF000010000F00040704710B500F01AF800BF53
:104000008900013E00F007B800F009B85FEA410CF2
:104010005FEA1C6C08D080EA010000F050B85FEA4B
:10402000400C5FEA1C6CF6D14FF00040A0F5800018
:1040300070470EF1020E2EF0030E5EF8044B244280
:1040400004D44FEA4102B2F17F4F11D84FEA400346
:10405000B3F17F4F0CD80ED14FEAD07CB2F17F4F35
:104060000CEB4C0C0CF1020C08BF4CEBD17C04E0C7
:104070004FF0080C01E04FEAD17C0CEB4C0324FA22
:1040800003F404F00704B4F1040C06D20EEB840C24
:10409000BDE810404CF0010C6047DFE80CF0070869
:1040A00002024FF00040A0F5800010BD084642001B
:1040B00018BFD2F1807288BF00F0004010BDFF2110
:1040C00041EAD050C005704780F0004090EA010FEF
:1040D0007FF5DDAD81F0004100F007B890EA010FF7
:1040E00048BF81F000413FF5D2AD421A04D882F0BA
:1040F0000042A0EB020011444FEAD0524FF07F4C37
:104100001CEA410FA2EBD15318BF9CEA026F4AD0C0
:104110004FF0004C4CEA00204CEA012121FA03FC4C
:10412000B0EB0C0C0FD412F0FE0F36D05FEA4C004F
:104130001DD5001240EBC25038BF70471CF03F0F36
:1041400018BF70470BE0A2F101025FEA1C2040EBB0
:10415000C25038BF70471CF07F0F18BF7047C3F1C3
:104160002003994014BF401E20F0010070478008D2
:104170004FEA122308BF7047B0FA80FCA2EB0C0292
:10418000CCF1280C60FA0CF093EA122F04BF00EB7C
:10419000C25070474FEAC3707047130A5FEADC10E1
:1041A00008BF7047F6E79CEA026F04D010EA5C0F84
:1041B00008BF0020704710B5FFF73BFF40DFF63E19
:1041C00081F0004070470CF00F03092B08BF082056
:1041D00000F059800A2B0BD0082B18BF704708BF7E
:1041E0001CF0400F0AD04FF000004FF00001704764
:1041F0001CF0400F18BF4FF0004070471CF0100F2C
:1042000008D020F0704300F07F4242EAD3014FEA29
:104210004370704700F0604021F07F4242EA0002A4
:1042200001F07F4040EA727070474FF0FF0C4CF491
:10423000E06C1CEA11531CBF9CEA030C9445C2BFFE
:10424000DA4201EB02517047002B0DD0BCF1000F98
:104250000FD0002A01F00041A4BF41F0E04141F03D
:104260007F614FF00000704701F000414FF0000007
:10427000704750EA01334FF09B0C18BF4CF0806C34
:104280007FF492A970471CF4801F11D01CF4E02F1A
:1042900003D06FEACC31490070474FF04050EFF344
:1042A000008222F0704242EA000282F300887047E6
:1042B0004FF00000704701020203040506070809D9
:1042C0000A0B0C0D0E0F1010000000000000000083
:1042D00001020304060708090000000001020304AC
:1042E0004FBB610567ACDD3F182D4454FB21E93F0E
:1042F0009BF681D20B73EF3F182D4454FB21F93FFD
:10430000E2652F227F2B7A3C075C143326A6813C82
:10431000BDCBF07A8807703C075C143326A6913C2D
:10432000C4EB98999999C9BF711623FEC671BCBF99
:104330006D9A74AFF2B0B3BF9AFDDE522DDEADBF01
:104340002F6C6A2C44B4A2BF0D5555555555D53F19
:10435000FF8300922449C23F6E204CC5CD45B73F34
:10436000513DD0A0660DB13FEB0D76244B7BA93FAC
:1043700011DA22E33AAD903F000000000000000097
:10438000A043000800000020A4000000280100084D
:1043900044440008A40000203C0800004401000838
:1043A0000000000000000000000000000AD7A33B4E
:1043B0002DCF733F0000000000000000000000004F
:1043C00000000000000000000000000000000000ED
:1043D00000000000000000000000000000000000DD
:1043E00000000000000000000000000000000000CD
:1043F0000000000000001644000000000000004122
:1044000000000000000000000000000000000000AC
:10441000000000000000000000000000000000009C
:10442000000000000000000000000000000000008C
:10443000000000000100000010000000000000006B
:044440000024F40060
:04000005080000ED02
:00000001FF
